:020000040800F2
:1000000098130020E1010008CB3A00089134000861
:10001000C93A0008D1140008CB55000800000000C0
:10002000000000000000000000000000753E000815
:10003000D316000800000000733E0008773E000859
:10004000FB010008FB010008FB010008FB010008A0
:10005000FB010008FB010008FB010008FB01000890
:10006000FB010008FB010008FB010008FB01000880
:10007000FB010008FB010008FB010008FB01000870
:10008000FB010008FB010008F1130008FB01000858
:1000900055550008FB010008FB010008FB010008A2
:1000A000FB010008FB010008FB010008FB01000840
:1000B000FB010008FB010008FB010008FB01000830
:1000C000FB010008FB010008FB010008FB01000820
:1000D000FB010008FB010008FB010008FB01000810
:1000E000FB010008FB010008FB01000800F002F81A
:1000F00000F067F80AA090E8000C82448344AAF15B
:100100000107DA4501D100F05CF8AFF2090EBAE858
:100110000F0013F0010F18BFFB1A43F0010318473B
:10012000D4610000F46100000A444FF0000C10F8A4
:10013000013B13F0070408BF10F8014B1D1108BF65
:1001400010F8015B641E05D010F8016B641E01F805
:10015000016BF9D113F0080F1EBF10F8014BAD1C55
:100160000C1B09D16D1E58BF01F801CBFAD505E073
:1001700014F8016B01F8016B6D1EF9D59142D6D3CD
:10018000704700000023002400250026103A28BFF5
:1001900078C1FBD8520728BF30C148BF0B607047F9
:1001A000662906F04680002070471FB500F0E2FB8C
:1001B00004000020002105F0BBFBE0601FBD10B56E
:1001C00010BD00F0D7FC1146FFF7EFFF05F02AFA4B
:1001D00000F0F5FC03B4FFF7F2FF03BC00F038FDBC
:1001E0000948804709480047FEE7FEE7FEE7FEE7CB
:1001F000FEE7FEE7FEE7FEE7FEE7FEE70448054907
:10020000054A064B70470000F73E0008ED00000865
:10021000980D002098130020980F0020980F0020C0
:100220000FB41CB5074B06AA7B446946009005989D
:1002300000F055FB0020694600F064FB1CBC5DF833
:1002400014FB0000D90600002DE9F0474FF0000A2A
:1002500089460446C0F820A02046E1688847002867
:1002600076D0252806D0D4E901219047206A401C89
:100270002062F1E7E168204600258847C4F81CA009
:1002800006460027C4F818A02A2E09D0304605F0EB
:10029000C1F938B304EB8708303EC8F8186019E09C
:1002A00059F8041B204604EB87029161E1688847F6
:1002B000012F064618D1E069002820DA25F0200534
:1002C0001DE0D8F8180000EB800006EB4000303845
:1002D000C8F818002046E1688847064605F09AF9F4
:1002E0000028EED1012F0AD02E2E08D12046E16839
:1002F00088477F1C0646022F45F02005C4DBA06915
:10030000002803DA404245F00105A061E80701D06A
:1003100025F01005B6B1A6F14100192802D8203603
:1003200045F400654A463146204625604D46FFF7B4
:1003300037FF58B1012806D0ED1D25F0070000F168
:10034000080989E704E005F1040985E730468AE7F2
:10035000206ABDE8F08710B5431C02E010F8011BCD
:1003600071B18107FAD14FF0013202C88C1A8C4367
:1003700014EAC211F9D0C01A0A0603D0C01E10BD7B
:10038000C01A10BD0A0401D0801E10BD0902FCD0A5
:10039000401E10BD032A40F2308010F0030C00F024
:1003A000158011F8013BBCF1020F624498BF11F8AF
:1003B00001CB00F8013B38BF11F8013BA2F1040268
:1003C00098BF00F801CB38BF00F8013B11F00303E0
:1003D00000F09D82083AC0F0088051F8043B083ACA
:1003E00051F804CBA0E80810F5E7121D5CBF51F8E6
:1003F000043B40F8043BAFF30080D20724BF11F860
:10040000013B11F801CB48BF11F8012B24BF00F8C4
:10041000013B00F801CB48BF00F8012B70474FF0BB
:1004200000020429C0F0128010F0030C00F01B80C1
:10043000CCF1040CBCF1020F18BF00F8012BA8BFCF
:1004400020F8022BA1EB0C0100F00DB85FEAC17C93
:1004500024BF00F8012B00F8012B48BF00F8012B46
:1004600070474FF0000200B5134694469646203977
:1004700022BFA0E80C50A0E80C50B1F12001BFF45D
:10048000F7AF090728BFA0E80C5048BF0CC05DF8C3
:1004900004EB890028BF40F8042B08BF704748BF11
:1004A00020F8022B11F0804F18BF00F8012B704785
:1004B00070477047704770472DE9FF4F0C461E4646
:1004C0004FF0FF378BB0D2E90001DDF860800A9071
:1004D0008A46C1F30A5505B93D46002108464FF04A
:1004E0000000BAF1000F00F4400005DA00EB8000D4
:1004F0004FF4400101EA50004FEA9059B9F1010F61
:1005000000DDB9460A9850EA4A000ED044F6105071
:10051000A5F2FF3545432F14B8F1000F1ED07542E8
:10052000291E1EDDC9F100021CE0B8F1010F4FF0D9
:10053000000001D0302103E0F24305E02154401CCB
:10054000B042FBDB30460022002121540B99C1F858
:100550000880C1E900200FB0BDE8F08FBD1B6D1C05
:10056000DEE74A4600DA694206A800F08DFA06ABDB
:1005700093E8070003AB83E8070050460A9900F0B0
:100580006EFB8DE80700A0F500501F38009003981F
:10059000002D0ADD42F21F014A460844002303A948
:1005A0000390684600F0D7FD09E0A0F500504A46E8
:1005B0001F38002303A90390684600F0E1FD8DE891
:1005C00007000004000C03D04FF0FF30410800E0AA
:1005D0001046B8F1000F03D00022009215461EE02D
:1005E000751E05D400F0CAF9303262556D1EF9D57A
:1005F000B3460122084302D000227F1C04E0207889
:10060000302801D100227F1E002A099784D01DE0E6
:10061000112D07DA00F0B2F9303262556D1C50EA44
:100620000102F5D1084302D00098C8B10EE00021C4
:10063000681E05E0235C625C63542254401E491C22
:100640008142F7DBAB46A81B401E0990002004F84E
:100650000B000B98099AC0F80880C0E9002B7AE7D4
:1006600011264FF0000857E72DE9F04F8846044661
:10067000D21D22F0070191B0D1E90001CDE90A01B4
:1006800004F0A4FF02460B98C00F01D02D2007E014
:100690002068810701D52B2002E0202101EAC0005B
:1006A000032A099001D0072A05DB0346414620466C
:1006B00000F0AAF90BE12078800601D5E06900E09E
:1006C0000620B8F1650F814606D0B8F1660F18D044
:1006D000B8F1670F70D131E00020B9F1110F00902F
:1006E00001DB112301E009F101030AAA01A90CA809
:1006F000FFF7E2FEDDE90C70002609F101058346F3
:1007000047E001204B4600904FF000470AAA01A99C
:100710000CA8FFF7D1FEDDE90DB00C995D4600266F
:1007200010B909F101000D18B9EB050003D4C0F1AF
:10073000FF3609F10105A5EB09002BE0B9F1010F26
:1007400001DA4FF001090020B9F1110F009048467D
:1007500001DD112300E003460AAA01A90CA8FFF756
:10076000ABFEDDE90C704D4600268346207800077D
:100770000AD4AB4500DA5D4601A8012D04DD41191C
:1007800011F8011C302907D04F4502DA17F1040F88
:1007900004DA012082460FE06D1EEEE7002F02DC36
:1007A000ED1B3E4403E0781CA84200DD7D1CB81B15
:1007B00000F1010A4FF000472078000703D4AA4552
:1007C00001DB4FF0FF3A0021B7F1004F0DF1430874
:1007D0008DF8431024D002202B23002F01DA7F4212
:1007E0002D230A21021EA0F1010000DC5FB197FB5E
:1007F000F1FC97FBF1F201FB1C7C17460CF1300C6D
:1008000008F801CDEEE7A8F1010003702188090581
:1008100001D5452100E06521A0F1010800F8011C87
:1008200009980FA9A1EB0807FF1D00B1012041198C
:1008300001EBEA70A1693844081A401EA0612078D3
:10084000C00602D42046AFF30080099828B1D4E94D
:1008500001219047206A401C20622078C00622D5E2
:100860002046AFF300801EE0002E04DBB34502DD1E
:1008700001A8805D00E03020D4E901219047206A82
:10088000401C2062761CAAF101005FEA000A0AD12E
:1008900000F070F8C0680168405CD4E9012190471D
:1008A000206A401C2062281EA5F10105DCDC07E05F
:1008B000D4E9012118F8010B9047206A401C2062FE
:1008C000381EA7F10107F3DC2046AFF300800320B8
:1008D00011B041E601694A1C02610878704700B511
:1008E0008FB0CDE901310021059105497944CDE969
:1008F000031011466846FFF7A7FC0FB000BD0000CB
:10090000E5FFFFFF0A6802F8010B0A60704710B5A7
:10091000203AC0F00B80B1E81850203AA0E81850F7
:10092000B1E81850A0E81850BFF4F5AF5FEA027CB8
:1009300024BFB1E81850A0E8185044BF18C918C027
:10094000BDE810405FEA827C24BF51F8043B40F8C8
:10095000043B08BF7047D20728BF31F8023B48BFAD
:1009600011F8012B28BF20F8023B48BF00F8012BEB
:100970007047000000487047540D002030B5B0F1BA
:100980000A024FEA900E71F100034EEA817EB0EB4D
:100990000E0061EB91014FEA101E4EEA017E10EB52
:1009A0000E0041EB11114FEA102E4EEA016E10EBD2
:1009B0000E0041EB11214FEA104E4EEA014E10EBB2
:1009C0000E0041EB1141401841F100014FEAD00007
:1009D00040EA41704FEAD10110EB80054FEA8104F3
:1009E00044EA907444EB01046D1944EB0404521B77
:1009F000A3414FF0000348BF0A3200D530BD401C70
:100A000041F1000130BD00002DE9F0411F460446D0
:100A100003260168072A01F4006004DB08B116A56B
:100A200005E016A503E008B115A500E015A521F025
:100A300010002060A069C01EA0610FB1401EA0611F
:100A40002046AFF300804FB1D4E9012138469047EA
:100A5000206A401C2062C01C206206E0206AFAE77F
:100A6000D4E9012115F8010B9047761EF8D22046F3
:100A7000AFF30080BDE8F0814E414E006E616E0024
:100A8000494E4600696E66002DE9F04781461646DC
:100A90008AB0354878440DC88DE80D003248784456
:100AA000801C03AC0DC884E80D0041F69B3008445F
:100AB000372190FBF1F290FBF1F5A5F1800501FBE8
:100AC00012041B3C02D56442012000E00020DFF844
:100AD00098A080460027FA44AAF1BE0A0EE0E0077B
:100AE0000AD03246684607EB470101230AEB810131
:100AF00000F046FB8DE8070064107F1C002CEED14F
:100B0000194F7F44AE3F19E0E80715D007EB0410FA
:100B10000DF1180A90E80E008AE80E00C068F04255
:100B200001D1981908903246012306A903A800F0C4
:100B300027FB03AB83E807006D10641C002DE3D195
:100B40004FF0010332466946B8F1000F03A802D006
:100B500000F001FB01E000F013FBC9E90001C9F856
:100B600008200AB0BDE8F0874458000000487047EC
:100B7000340D00207546FFF7F9FFAE4605006946C3
:100B8000534620F00700854618B020B5FFF736FB26
:100B9000BDE820404FF000064FF000074FF000087E
:100BA0004FF0000B21F00701AC46ACE8C009ACE8FF
:100BB000C009ACE8C009ACE8C0098D46704710B563
:100BC0000446AFF300802046BDE81040FFF702BBAB
:100BD0004FF0013C50F8042B51F8043B9A4221D1CC
:100BE000A2EB0C03934313EACC1317D150F8042B58
:100BF00051F8043B9A4215D1A2EB0C03934313EA3C
:100C0000CC130BD150F8042B51F8043B9A4209D174
:100C1000A2EB0C03934313EACC13DBD04FF000009C
:100C2000704700BFD01A01BAB1FA81F101F0180182
:100C300022FA01F0CB40C1F12001DBB2C0B2C01AF0
:100C40002CFA01F3D11A914311EAC311E6D170478E
:100C500001491820ABBEFEE72600020070475FEA9C
:100C6000400C08BF91F0000F4FEA8C234FEAC122DD
:100C700043EA51514FEA1C5018BF00F5F0404FEACB
:100C8000300018BF41F000415FEA6C5C00F0298041
:100C9000BCF1FF3F08BF40F080407047130C06BF17
:100CA00012044FF0100C4FF0000C130E04BF120290
:100CB0000CF1080C130F04BF12010CF1040C930F7C
:100CC00004BF92000CF1020CD30F04BF52000CF1D0
:100CD000010C11464FF00002A0F11F00A0EB0C0028
:100CE000704711F0004F08BF704731F000413FF4EA
:100CF000D5AF0B0C06BF09044FF0100C4FF0000CE1
:100D00000B0E04BF09020CF1080C0B0F04BF090104
:100D10000CF1040C8B0F04BF89000CF1020CCB0FFB
:100D200004BF49000CF1010CCCF12003A0EB0C0036
:100D300022FA03F302FA0CF241EA030100F1010086
:100D4000704720F07F4C80EA030023F07F47ACEB34
:100D5000070303F57C5300F0004003F1FF032DE986
:100D600080494FEA154B09B44FEA144325EA0B4E6C
:100D700024EA03480FF2042606EB132749083E78BD
:100D80005FEA320203FB0667C7F5000707FB06F6BA
:100D90004FEA54374FEAD64606F1020607FB066CC7
:100DA000CCF1005C4FEA1C472CEA074C07FB06F429
:100DB0000CFB06F504EB15464FEA961634BF0020EF
:100DC0004FF000404FEAD13706FB07FC4FEA1C4CBE
:100DD0000CFB0BF7D21B03FB0CF761EB07010CFBC1
:100DE0000EF7B0EB074072EB17420CFB08F734BF6D
:100DF000A2EB0742B2EB074261EB17414FEA0C440A
:100E00004FEA910706FB07FC4FEA1C4C0CFB0BF763
:100E1000B0EBC74072EB573203FB0CF734BFA2EBC9
:100E2000C742B2EBC74261EB57310CFB0EF7B0EB98
:100E3000C70072EB57720CFB08F734BFA2EBC70276
:100E4000B2EBC70261EB5771039F4FEA816141EA40
:100E5000921104EBCC044FEAD1374FEA826206FBD1
:100E600007FC42EA90124FEA80604FEA1C4C0CFBF0
:100E70000BF7D21B03FB0CF761EB07010CFB0EF722
:100E8000B0EB074072EB17420CFB08F734BFA2EB44
:100E90000742B2EB074261EB17414FEA8C554FEA2C
:100EA000910704EB9C2406FB07FC4FEA1C4C0CFB4F
:100EB0000BF7B0EBC74072EB573203FB0CF734BFB4
:100EC000A2EBC742B2EBC74261EB57310CFB0EF706
:100ED000B0EBC70072EB57720CFB08F734BFA2EB04
:100EE000C702B2EBC70261EB577115EB4C254FEA15
:100EF000816141EA92114FEA82624FEAD13742EAB8
:100F0000901206FB07FC44F100044FEA80604FEAB0
:100F10001C4C0CFB0BF7D21B03FB0CF761EB07011E
:100F20000CFB0EF7B0EB074072EB17420CFB08F717
:100F300034BFA2EB0742B2EB074261EB174115EB5E
:100F40001C154FEA813141EA92414FEA823242EA6E
:100F500090424FEA80304FEA0C7644F1000448EAB0
:100F600003434EEA0B484FF0000EB2EB080C71EB56
:100F7000030724BF624639464EEB0E0E4FF0000BBE
:100F80000018524149414BEB0B0BB2EB080C71EBD3
:100F900003077BF1000B24BF624639464EEB0E0E71
:100FA0004FF0000B0018524149414BEB0B0BB2EBD9
:100FB000080C71EB03077BF1000B24BF6246394636
:100FC0004EEB0E0E51EA020718BF46F0010616EB73
:100FD0000E7655F1000254F1000103D5BDE88901F8
:100FE000BDE80088BDE88901BDE80048B619524156
:100FF00041EB0101A3F10103704780807F7E7D7C7E
:101000007B7A7978777676757473727171706F6E9A
:101010006E6D6C6C6B6A6A69686867666665646445
:10102000636362616160605F5F5E5E5D5D5C5C5BCF
:101030005B5A5A595958585757565655555554543E
:10104000535352525251515050504F4F4F4E4E4D9C
:101050004D4D4C4C4C4B4B4B4A4A4A4949494848E8
:101060004847474747464646454545444444444328
:1010700043434342424242414141002B9C4630D4CB
:1010800077002BD01CB54FEA370703B44FF01000A0
:101090004FF01001BAF1000F06D0BCF1000FDCBF19
:1010A00040F0080040F008014FF000000FBCBDE820
:1010B00010400BF1010BBBF1010F08BF5FEA1707EE
:1010C00022BF12F1010211F101014FF0004143F181
:1010D000000300F0004043EA00007047F9D35708CE
:1010E000D0E746EA064613F1400F4FEA16461FDDE9
:1010F00013F1200FDFBF16430A46002120335B4265
:10110000BED0C3F1200746EA064602FA07F74FEAC7
:10111000164646EA0706C3F1200722FA03F201FA4F
:1011200007F721FA03F14FF0000342EA0702A7E7AD
:1011300046EA020646EA06464FEA164646EA01062F
:10114000BCBF46EA0646360C4FF000034FF00002E3
:101150004FF0000194E72DE9804C9A46934670B415
:1011600091E8380007C831EA400C48BF34EA430C24
:1011700003D5FFF7E6FDFFF780FFF0BCBDE8008C6C
:101180002DE9804C9A46934670B491E8380007C820
:1011900010F0804F08BF13F0804F03D100F005F826
:1011A000FFF76BFFF0BCBDE8008C20F07F4780EAC2
:1011B000030023F07F4C07EB0C03A3F57C5300F0F6
:1011C0000040A3F1FE0392F0000F00F0B38095F011
:1011D000000F00F077802DE901494FEA11404FEAF6
:1011E000144621EA004800FB06FC24EA064708FBF7
:1011F00006F607FB08F800FB07F718EB06484CEB70
:10120000164C4FEA124B18EB07484FEA15464CEBC9
:10121000174022EA0B4E0BFB06FC25EA06470EFBA5
:1012200006F607FB0EFE0BFB07F71EEB064E4CEB1C
:10123000164C4FF000061EEB074E4CEB174B18EB0D
:101240000B0840F1000018EB0E0B58EB000840F1C2
:1012500000008F1A4FF000013CBFC943661B14BF4A
:10126000B5EB040C00213CBFC943F61B4FEA174401
:101270004EEA8E0E27EA04454FEA1C4704FB07623C
:101280002CEA074C05FB07F70CFB05F604FB0CFCEE
:1012900016EB074642EB174216EB0C4642EB1C429C
:1012A0001BEB060658EB0202414146EA9E0601D5B9
:1012B000BDE80189B619524141EB0101A3F10103D7
:1012C000BDE801894FEA14454FEA114724EA054673
:1012D00021EA074C05FB07F406FB07F70CFB06F1B8
:1012E00005FB0CFC11EB074144EB17444FEA124796
:1012F00011EB0C4144EB1C4422EA074C05FB07F2BE
:1013000006FB07F70CFB06F605FB0CFC16EB074685
:1013100042EB174216EB0C4642EB1C456A1854F19F
:10132000000148BF7047B619524141EB0101A3F1DA
:101330000103704795F0000F37D04FEA11424FEA92
:10134000144721EA024624EA074C02FB07F106FB98
:1013500007F70CFB06F402FB0CFC14EB074441EB13
:1013600017414FEA154714EB0C4441EB1C4125EAA9
:10137000074C02FB07F506FB07F70CFB06F602FB22
:101380000CFC16EB074645EB174516EB0C4645EBF8
:101390001C42121951F1000148BF7047B619524161
:1013A00041EB0101A3F1010370474FEA14454FEAF5
:1013B000114724EA054621EA074C05FB07F106FB25
:1013C00007F70CFB06F24FF0000605FB0CFC12EBD6
:1013D000074241EB174112EB0C4251EB1C4148BF55
:1013E0007047921841EB0101A3F10103704700001F
:1013F000014800F018BA00000402002070B504464D
:1014000000688168C943C90717D1816821F00101CB
:10141000816000F0A9FC05460AE000BF00F0A4FCD2
:10142000401B022804D920688068C043C00706D04A
:1014300020688068C043C007F0D0002070BDA06A5B
:1014400040F01000A062E06A40F00100E06201207C
:1014500070BD0000F8B5002604460096006881685B
:10146000C943C9072DD0816841F001018160164848
:1014700016490068B0FBF1F000E0401E0090002823
:10148000FBD100F071FC054616E000BF00F06CFCDB
:10149000401B022810D920688068C043C0070BD0C9
:1014A000A06A40F01000A062E06A40F00100E06233
:1014B00084F824600120F8BD20688068C043C0071C
:1014C000E4D10020F8BD00008800002040420F0059
:1014D000FEE70020704700207047000010B5002292
:1014E0000549064802F0FAFD03490448403902F074
:1014F000EFFD002010BD0000FC070020F8020020D6
:1015000010B5044601460A4802F0E2FD084802F020
:10151000C3FD10210748FEF782FF1022214605482F
:10152000FEF738FF10212046FEF779FF002010BD9E
:10153000F8020020DC020020094A10B5D2F8B822D7
:10154000D2F814220AB1012010BD0A46014604480F
:1015500002F0C4FDBDE81040014802F01DBE0000CD
:10156000F802002010B504460298216022716371D0
:10157000A0712820A0720620E0710C202072142097
:1015800060720820E072322000F0E6FA0022332177
:10159000204600F069F800223321204600F064F86C
:1015A000052000F0D9FA00223221204600F05CF834
:1015B000052000F0D1FA00222021204600F054F846
:1015C000052000F0C9FAE1790022204600F04CF82D
:1015D000217A0022204600F047F8617A0022204656
:1015E00000F042F8A17A0022204600F03DF80022E7
:1015F0000121204600F038F820460022BDE81040C6
:10160000022100F031B830B4447900238C4201D873
:10161000641EE1B28479944201D8641EE2B232B110
:10162000012A06D0022A06D0032A06D007E00B467C
:1016300005E0403102E0143100E05431CBB230BC5F
:1016400043F08001002200F00FB8012200F00CB836
:1016500070B50C46054603E02846641CFFF7F5FF0D
:1016600021780029F8D170BD7CB506460807040E24
:10167000F07A01F0F00518B145F0080544F00804CF
:10168000012A01D02AB108E045F0010544F0010427
:1016900003E025F0010524F0010445F004008DF875
:1016A0000400012000F058FA8DF8055044F00400C1
:1016B0008DF80600012000F04FFA4FF47A708DF893
:1016C000074000903179042301AA306800F016FC2D
:1016D0007CBD704772B6FEE770470000F8B5002485
:1016E000009490F824202546012A12D0012280F887
:1016F00024204A681F23072A0DD20668776B521EE2
:1017000002EB820293409F430B6893401F43776331
:1017100019E00220F8BD06680D2A0AD2376BD21FE5
:1017200002EB820293409F430B6893401F43376351
:1017300009E0F76A0D3A02EB820293409F430B687F
:1017400093401F43F7620A68072306680A2A0AD3F0
:10175000F7680A3A02EB420293409F438B6893403A
:101760001F43F76008E0376902EB420293409F4352
:101770008B6893401F4337610A68102A01D0112AF1
:1017800020D1124B02689A4217D193681B0219D4D8
:10179000936843F4000393600968102912D10C493F
:1017A0000C4A0968B1FBF2F101EB8101490000E04C
:1017B000491E00910029FBD104E0816A41F020011B
:1017C0008162012480F824502046F8BD00240140A5
:1017D0008800002040420F0010B500680B49884285
:1017E00013D10B4800F01CF80A4C80B2208004F0A2
:1017F0003FFA4FF06632084B04F04EFA0022074BD6
:1018000004F0DEF804F0AAF8A06010BD0024014046
:10181000040200200000002066660A4000FEAF407F
:101820000068C06C704770B504460068066845687B
:10183000A90625D5B10723D5A16AC90603D4A16A93
:1018400041F40071A1628168C1F34241072910D1BE
:10185000217B71B9416821F020014160A06A20F428
:101860008070A062A06AC00403D4A06A40F00100A6
:10187000A0622046FFF7B0FF21686FF012000860F9
:1018800028062ED570072CD5A06AC00603D4A06AFE
:1018900040F40050A06220688168C1F3023107293A
:1018A00009D04168490515D48168C1F3424107292F
:1018B00010D1217B71B9416821F080014160A06A9B
:1018C00020F48050A062A06AC00503D4A06A40F052
:1018D0000100A0622046FFF7FFFE21686FF00C00B8
:1018E000086068060CD5F0070AD0A06A40F4803082
:1018F000A062204600F094F821686FF001000860B3
:1019000070BD00002DE9F0414FF0000704003D4696
:101910007ED0A06A002628B9E66284F824602046BA
:1019200000F080F82046FFF769FDA16AC90600D4DF
:1019300020B1A06A40F01000A06269E0A16A21F421
:10194000885141F00201A1626268E169237B0A4388
:1019500047EA43010A43A1684FF48077B94209D0AE
:10196000012907D05FF0000194F814C0BCF1010F09
:1019700002D00AE03946F7E7F3B1A36A43F0200347
:10198000A362E36A43F00103E3622368D3F804C06F
:101990002CF4694C4CEA010CC3F804C021688B6834
:1019A000DFF870C003EA0C0313438B60A168B942EF
:1019B0000BD0012909D00CE0DFF85CC0A3690CEB67
:1019C00043330B4343F40061DFE7218A0D05A5F59E
:1019D00080152168CB6A23F470032B43CB62216806
:1019E00089680E4B1940914208D1E662A16A21F044
:1019F000020141F00101A162BDE8F081A06A20F07E
:101A0000020040F01000A062E06A40F00100E062D5
:101A10000120F1E7FDF7E1FF00E0FFFFFE0E1FFFF1
:101A20007047000000B585B000210091019102913E
:101A3000039100681249884220D11248816941F41B
:101A400000718161816901F400710491816941F043
:101A5000040181618069694600F00400049001205E
:101A6000009003200190084800F088F800221146F9
:101A7000122000F051FD122000F040FD05B000BD25
:101A800000240140001002400008014070B50446E7
:101A900090F8240001280DD0012084F8240020466D
:101AA000FFF7D8FC02004FF0000005D084F82400B6
:101AB000104670BD022070BDA16A40F601639943D3
:101AC00041F48071A162224D23682249AB4218D1B2
:101AD0000E6816F4702F14D0A66A46F48016A6621B
:101AE0000E68760505D5A66A26F4005646F480569B
:101AF000A662A66AF6040AD5E66A26F00606E6623B
:101B000006E0A66A26F48016A6625E68E9E7E0624F
:101B100084F824006FF0020018602068436843F0E6
:101B20002003436020688368C3F34243072B05D139
:101B3000A84208D1096811F4702F04D0816841F4DB
:101B400080118160B4E7816841F4A001F9E70000E9
:101B5000002801400424014070B5044600F004F957
:101B60000546601C02D004480078044400F0FCF8EC
:101B7000401BA042FAD370BD7C0000202DE9F84F35
:101B8000DFF8B8910024A9F1040B23460F2709F1CF
:101B9000040AABF1040EC9E00125A5402A40AA427F
:101BA0007DD1674ED1F804C0ACEB0608B44532D005
:101BB00014DCBCF1030F3AD009DCBCF1000F2AD0D1
:101BC000BCF1010F1CD0BCF1020F31D11DE0BCF102
:101BD000110F17D0BCF1120F2AD119E0B8F5881FE8
:101BE00019D006DCB8F5803F15D0B8F5801F1FD19D
:101BF00011E0B8F5001F0ED0B8F5041F18D10AE0A7
:101C0000CB6815E0CB681B1D12E0CB6808330FE0F2
:101C1000CB680C330CE08B682BB1012B4FF0080321
:101C200003D0456104E0042302E0056100E00023E5
:101C3000FF2A01D8064601E000F104064FEA8405B8
:101C400001D9A5F12005D6F8008007FA05FC28EA9D
:101C50000C0803FA05F548EA0508C6F800804D6847
:101C6000ED0062D5374DAE6946F00106AE61AD6953
:101C700024F0030605F001050095334D06EB050C35
:101C8000DCF80850A607360F07FA06F825EA08051B
:101C9000DFF8B880404503D14FF0000817E044E07A
:101CA000DFF8AC80404502D14FF001080FE0DFF8CB
:101CB000A480404502D14FF0020808E0DFF8988088
:101CC000404502D14FF0030801E04FF0040808FA44
:101CD00006F848EA0508CCF808804D68D9F8006095
:101CE000ED024D4601D5164300E096432E604D6847
:101CF000DAF80060AD02554601D5164300E0964380
:101D00002E604D68DBF80060AD035D4601D51643DB
:101D100000E096432E604D68DEF80060ED037546E6
:101D200001D5164300E096432E60641C0D682A46D8
:101D3000E5407FF431AFBDE8F88F000008040140B2
:101D40000000111000100240000001400008014096
:101D5000000C014000100140001401400AB1016173
:101D600070470904FBE700000148806870470000E5
:101D70007C00002070B5040025D094F83D000025BB
:101D800020B984F83C50204600F014FB242084F84D
:101D90003D002068016821F00101016020680168B0
:101DA00041F4004101602068016821F400410160B4
:101DB00001F094F94D4A6168914201D84C4900E024
:101DC0004C49884201D2012070BD4B492368B0FBC9
:101DD000F1F15E6826F03F060E435E606368934251
:101DE00006D94FF4967359434FF47A73B1FBF3F16C
:101DF0002368491C1E6A26F03F0631431962616858
:101E0000914210D84900401EB0FBF1F2521CC2F3BF
:101E10000B02042A01D2042022E0B0FBF1F0401CA6
:101E2000C0F30B001CE0A268F2B301EBC10303EBAB
:101E30000116431EB3FBF6F35B1C43F480431B0502
:101E400049D092B301EBC10202EB0111401EB0FB7D
:101E5000F1F0401CC0F30B0040F4804040F400401F
:101E60002168CA694CF6FF739A431043C861D4E9EC
:101E7000071001432068026822F0C002114301608C
:101E8000D4E9030101432068826848F2FF339A4392
:101E900011438160D4E9050108432168CA6822F032
:101EA000FF021043C86001E00EE016E02068016800
:101EB00041F0010101602564202084F83D00256384
:101EC00084F83E50002070BD01EB4106431EB3FB79
:101ED000F6F35B1CB3E70120C2E701EB4101401EB2
:101EE000B0FBF1F0401CC0F30B00B7E7A086010087
:101EF00080841E0000093D0040420F002DE9F84F8C
:101F00001F4690468A460446DDF82890FFF72CFFCE
:101F1000054694F83D0020287FD11923012240492D
:101F20002046009501F018FC002876D194F83C007A
:101F3000012872D0012084F83C0020680168C9079C
:101F400003D1016841F0010101602068016821F4BA
:101F500000610160212084F83D00102084F83E00DB
:101F600000262664C4F824806785608D20852D486E
:101F7000E0622B464A465146204601F0A1FA90B94C
:101F8000206841698069009036E02A46494620462B
:101F900001F0C0FC50B1206C042804D12068016815
:101FA00041F4007101600120BDE8F88F606A21688A
:101FB00000780861606A401C6062618D491E61851D
:101FC000218D491E89B2218522685369DB435B0755
:101FD0000BD451B100781061606A401C6062608D62
:101FE000401E6085208D401E20852A464946204699
:101FF00001F086FB0028CED1208D0028C5D154F8F1
:102000003D0B016841F400710160202004F81E09B5
:10201000E67766770020C7E7FFE70220C4E7000005
:10202000020010000000FFFF2DE9FF4F83B00025E4
:10203000DDE910799A4693460446DDF8488000951C
:10204000FFF792FE064694F83D0020287CD1192324
:10205000012288492046009601F07EFB0028F5D138
:1020600094F83C0001286FD0012084F83C002068DF
:102070000168C90703D1016841F0010101602068CE
:10208000016821F400610160222084F83D004020B5
:1020900084F83E0025646762A4F82A90608D20854C
:1020A0007548E062CDE9008653465A4620460499B9
:1020B00001F054FA00287CD1208DDFF8C091202750
:1020C00068B1012814D00228206801681ED041F4AC
:1020D000806101602068416980690090BCE02068EF
:1020E000416981690091016841F400710160B3E0C8
:1020F0002068016821F48061016072B6206841693E
:1021000081690091016841F400710AE041F40061C5
:10211000016072B62068416981690091016821F40B
:102120008061016062B697E0032865D801280CD071
:10213000022843464FF000024946204600960BD045
:1021400001F00AFBA8BB0CE091E032464146204674
:1021500001F0A8FB68BB72E001F0FEFA48BB72B662
:1021600033E02068016821F48061016072B6206864
:102170000069616A0870606A401C6062208D401EC0
:102180002085608D401E60853D4846F2A81100689C
:10219000B0FBF1F0C0EBC00000EB80000090401EEF
:1021A000009007D020684069C04340070DD50098D3
:1021B000F5E727E044F8305F6773A573206940F0C6
:1021C0002000206162B625731CE02068016841F49C
:1021D0000071016020680069616A0870606A401CD3
:1021E0006062218D491E2185618D491E618562B61F
:1021F00021680969017026E032464146204601F017
:1022000051FB18B1012007B0BDE8F08F20680069CC
:10221000616A0870606A401C6062208D401E81B255
:102220002185608D401E608520684269D243520737
:1022300012D4032903D1016821F480610160206870
:102240000069616A0870606A401C6062208D401EEF
:102250002085608D401E6085208D00287FF464AF4E
:1022600084F83D7084F83E5084F83C50CBE702205F
:10227000C9E70000020010000000FFFF0400010099
:10228000880000202DE9FF4F83B09A46DDE91197C1
:1022900093460446DDF84080FFF766FD054694F856
:1022A0003D0020287FD11923012240492046009576
:1022B00001F052FA002876D194F83C00012872D03F
:1022C000012084F83C0020680168C90703D1016837
:1022D00041F0010101602068016821F400610160A2
:1022E000212084F83D00402084F83E00002626642A
:1022F000C4F82480A4F82A90608D20852C48E062E0
:10230000CDE9007553465A462046049901F0A4F9D8
:1023100070B930E02A463946204601F0FBFA58B140
:10232000206C042804D12068016841F40071016028
:10233000012007B0BDE8F08F606A2168007808616D
:10234000606A401C6062218D491E89B22185628DC0
:10235000521E628522685369DB435B070BD469B167
:1023600000781061606A401C6062208D401E2085EC
:10237000608D401E6085208D0028CBD12A463946CD
:10238000204601F0BDF90028CAD154F83D0B016880
:1023900041F400710160202004F81E09E677667799
:1023A0000020C6E7FFE70220C3E70000020010009C
:1023B0000000FFFF30B585B000210091019102912E
:1023C00003911E4D03681E4C122103221D48AB428F
:1023D00016D1A36943F00803A361A369039203F034
:1023E00008030493C023CDE900316946FFF7C6FB1B
:1023F000E06940F40010E061E06900F4001019E0C9
:10240000114DAB4217D1A36943F00803A361A3693F
:10241000039203F0080304934FF44063CDE90031C5
:102420006946FFF7ABFBE06940F48000E061E069DA
:1024300000F48000049005B030BD0000005400405E
:1024400000100240000C0140005800400248816822
:1024500002781144816070477C000020074810B565
:10246000016841F010010160032000F075F80F20B1
:1024700000F006F800F024F8002010BD0020024013
:1024800070B50D4D04464FF47A712878B1FBF0F029
:102490000A490968B1FBF0F000F0E6FF48B9102CDA
:1024A00007D200222146501E00F036F800206C6052
:1024B00070BD012070BD00007C000020880000205D
:1024C0000C4808B5816941F001018161816901F021
:1024D00001010091C16941F08051C161C06900F002
:1024E000805000900448416821F0E06141F00071A3
:1024F000416008BD0010024000000140002809DBD7
:1025000000F01F02012191404009800000F1E0200D
:10251000C0F8001170470000F0B40E4B1B680C4669
:10252000C3F30223C3F10705042D00D90425191DA7
:10253000072901D2002300E0DB1E012606FA05F17F
:10254000491E214099409E40761E16403143F0BC02
:1025500003F050B80CED00E0064900F007020868EF
:102560004FF6FF03184040EA0220034A1043086078
:10257000704700000CED00E00000FA0510B50C06F5
:1025800007D501F0070101EB810100EBC10010301C
:1025900005E001EB810100EBC10000F5A87099B2E4
:1025A00032B1012202730181190C4181002010BD5A
:1025B00000220273C180F9E7704701EB810200EB52
:1025C000C202D0F8D402526A01F095BF01EB810239
:1025D00000EBC202D0F8D402D2F8642101F0EEBFC1
:1025E00070B504460B0601F0070000EB800104EB18
:1025F000C1014FF001024FF0000502D54A741031BD
:1026000003E081F8515101F5A871087094F8900227
:10261000012808D084F89022206802F02FFC84F86A
:102620009052002070BD022070BD70B5044601F0CC
:102630000F002279904201D9012070BD0B0601F0F4
:10264000070000EB800104EBC1014FF001024FF0E5
:10265000000502D54A74103103E081F8515101F5AB
:10266000A8718D70087094F89002012808D084F841
:102670009022206802F09FFC84F89052002070BDE8
:10268000022070BD2DE9F05F04685FEA424C0B78D0
:102690008D69B4F850C04FF000064BF68F7948F2C0
:1026A000800A48F68F7B48F2C00E4FF480672AD527
:1026B0004FF0020808EBC308C44407EB4C07E45B87
:1026C000C4F30904A54203D32D1B8D6101D00BE097
:1026D0008E61066836F8235005EA090585F4005531
:1026E00045EA0A0526F82350520609D50D780368F5
:1026F00033F8252002EA0B0242EA0E0223F82520D5
:1027000084B30A8929E04FF0060808EBC308C444E3
:1027100007EB4C07E45BC4F30904A54203D32D1B6C
:102720008D6101D00BE08E61066836F8235005EA12
:10273000090585F4005545EA0A0526F82350520696
:1027400009D40B78056835F8232002EA0B0242EA27
:102750000E0225F823202CB14A89496900682346D6
:1027600002F002FF2046BDE8F09F2DE9F05F05462C
:1027700000680C465FEA426C16468B692278B0F816
:1027800050C048F68F774CF280094FF4004B4FF65B
:10279000FF7E4FF4806A4FF0000172D54FF00208BF
:1027A00008EBC208E0440AEB480C30F80C00C0F318
:1027B0000900834211D91B1AA3610FD0730407D5F6
:1027C0002E6836F822303B4043EA090326F82230CF
:1027D00094F82420012A47D052E1A161607810B119
:1027E000012813D01AE02868B0F85030184400EBE4
:1027F0000210B0F80424C2F30902A0F80424B0F8CF
:10280000042442F40042A0F8042407E02868B0F849
:102810005030184400EB0210A0F8041462782868C5
:1028200012B1012A11D018E0B0F8501008442178F4
:1028300000EB0110B0F80C14C1F30901A0F80C145E
:10284000B0F80C1441F4004105E0B0F850201044F9
:10285000227800EB0210A0F80C1421782846FFF72C
:10286000ACFE700472D40BE1626902446261E269F9
:102870000244E2612369226A9A4203D31846111A7C
:1028800004E03EE084F824100AB110462162617829
:1028900011B1012929D031E02968B1F85020114443
:1028A000227801EB0211B1F80424C2F30902A1F865
:1028B000042401F204413E2807D94209C30600D18D
:1028C000521E0B884BEA822207E048B14208C30738
:1028D00000D0521C0B880EEA822213430B800DE0BD
:1028E0000A8842F400420A8008E02968B1F85020C2
:1028F0001144227801EB0211A1F8040483B2228969
:10290000BAE04FF0060808EBC208E0440AEB480CB6
:1029100030F80C00C0F30900834211D31B1AA361E5
:102920000FD0730407D42E6836F822303B4043EAB8
:10293000090326F8223094F82420012A51D09FE080
:10294000A161607818B1012814D01BE03FE028682D
:10295000B0F85030184400EB0210B0F80424C2F371
:102960000902A0F80424B0F8042442F40042A0F8BC
:10297000042407E02868B0F85030184400EB021037
:10298000A0F804146278286812B1012A11D018E066
:10299000B0F850100844217800EB0110B0F80C1486
:1029A000C1F30901A0F80C14B0F80C1441F4004173
:1029B00005E0B0F850201044227800EB0210A0F897
:1029C0000C1421782846FFF7F8FD700458D42278BB
:1029D000296831F82200384040EA090021F8220035
:1029E0004EE0626902446261E2690244E261236985
:1029F000226A9A4203D31846111A216204E00AB1EE
:102A00001046216284F824106278296812B1012AE4
:102A100028D02FE0B1F850201144227801EB0211A8
:102A2000B1F80C24C2F30902A1F80C2401F20C4104
:102A30003E2807D94209C30600D1521E0B884BEA33
:102A4000822207E048B14208C30700D0521C0B881D
:102A50000EEA822213430B800CE00A8842F4004203
:102A60000A8007E0B1F850201144227801EB0211EE
:102A7000A1F80C04628983B26169286802F092FDB2
:102A80002278296831F8220048F6BF73184080F098
:102A9000300048F28003184321F822000020BDE8EE
:102AA000F09F01F0070101EB810100EBC100D0F8BC
:102AB0006C0170472DE9F04104460F0601F0070054
:102AC00000EB800104EBC1014FF001064FF000055F
:102AD00002D54E74103103E081F8515101F5A8710F
:102AE000022B08700A61CB7000D10D7194F890022E
:102AF000012809D084F89062206802F06FF8284617
:102B000084F89052BDE8F0810220FBE710B501F097
:102B1000070404EB840100EBC101C1E95923002241
:102B2000C1F86C2181F8512181F85041006801F50C
:102B3000A87102F095FA002010BD70B504460D464C
:102B400001F007002179884201D9012070BD2906D2
:102B50004FF000064FF0010206D500EB800104EBB8
:102B6000C1014A74103107E005EB850104EBC10196
:102B700081F8516101F5A8718A70087094F890028B
:102B8000012807D084F89022206802F050FA6807E4
:102B900002D006E0022070BD04F52671206802F024
:102BA00008FA84F89062002070BD10B501F00704A7
:102BB00004EB840100EBC101C1E90923012281F882
:102BC00034200B630023CB624A7401F8104F006875
:102BD00002F046FA002010BD1FB50446006802F05E
:102BE000BFFC010403D5204600F070FF1FBD410566
:102BF0000DD5206830F8441F21F480610180204603
:102C000000F000F90021204600F017F91FBD410433
:102C100005D5206830F8441F21F4804174E0810418
:102C200005D5206830F8441F21F400516CE0C10440
:102C300014D5206830F8401F21F00401018020687D
:102C400030F8401F21F008010180204600F0EDF827
:102C5000206830F8441F21F4805155E0010540D52B
:102C6000D4F800200020694632F8203021F81030D6
:102C7000401CC0B20828F7D332F8400F40F00100E2
:102C80001080206830F8402F22F001020280206876
:102C9000B0F844205205FBD530F8442F22F480626E
:102CA00002800020236831F8102023F82020401CE7
:102CB000C0B20828F6D3206830F8401F41F0080160
:102CC0000180206830F8441F21F4006101802068F1
:102CD00030F8401F41F004010180204600F0E0F888
:102CE0001FBD810509D5206830F8441F21F400710B
:102CF0000180204600F09DF81FBDC005FCD520686E
:102D000030F8441F21F4807101801FBD2DE9F0418E
:102D1000040004D094F89102002518B107E00120C6
:102D2000BDE8F08184F89052204600F04DF8032071
:102D300084F891026571206802F034F994E80F007C
:102D400002F09AF8022698BB0021206802F022FCCB
:102D500070BB002001270BE000EB800104EBC101F8
:102D60004F740874CD740D624D62401CC0B28D6208
:102D700021798142F0D8002012E000BF00EB8001F1
:102D800004EBC10181F8515181F8500181F8535190
:102D9000C1F86051C1F86451401CC0B2C1F868511B
:102DA00021798142EAD894E80F0002F0F2F810B1DC
:102DB00084F89162B3E7657384F89172206802F039
:102DC000E6F80020ACE7000008B500680B4988422F
:102DD00012D10B48C16941F40001C161C0690022F0
:102DE00000F40000009011461420FFF795FBBDE8A9
:102DF00008401420FFF782BB08BD0000005C0040C3
:102E00000010024070B5044680790125022801D0E7
:102E1000FEF760FC2946D4F8D40201F0B7FCD4F8E0
:102E2000D402BDE8704001F073BCD0F8D40201F0C8
:102E300097BCD0F8D40201F09DBC10B5044690F8C0
:102E4000900201280AD0012084F890026173206862
:102E500002F0A2FB002084F8900210BD022010BDF9
:102E6000D0F8D42200F52671104601F09BBC10B5B5
:102E7000044690F89002012810D0012084F89002B6
:102E8000206802F05EFB01212046FFF795FB2068D9
:102E900002F07BF8002084F8900210BD022010BDE3
:102EA00010B50446D0F8D40201F0BBFCA07A00288B
:102EB00004D00348016841F00601016010BD000024
:102EC00010ED00E02DE9F84305460078354CC007C9
:102ED00054D0E0690026C00008D4E06940F080507A
:102EE000E061E069012600F0805000902E48016802
:102EF000C90512D40168804641F480710160FEF773
:102F000033FF074605E000BFFEF72EFFC01B642815
:102F100023D8D8F80000C005F6D5206A10F4407018
:102F200021D0A98801F4407181421CD0206A1F4938
:102F3000012220F440700A6000220A602062C0076B
:102F400011D0FEF711FF074641F2883808E000BFB4
:102F5000FEF70AFFC11B414502D90320BDE8F883F3
:102F6000206A8007F4D5206A696820F4407008431D
:102F700020621EB1E06920F08050E061287880076F
:102F800005D56068A96820F440400843606028784F
:102F9000C00605D56068E96820F4800008436060D9
:102FA0000020DBE700100240007000404004424275
:102FB0002DE9F0470F46050061D0434E306800F020
:102FC0000700B84209D2306820F00700384330606B
:102FD000306800F00700B84251D128683B4C8107A7
:102FE00012D5400703D5606840F4E060606028783F
:102FF000000703D5606840F4605060606068A968AD
:1030000020F0F000084360602878C00728D0686886
:10301000012810D02168022810D0890700292EDA53
:10302000616821F0030101436160FEF79DFE804667
:1030300041F288390DE021688903EFE78901EDE766
:10304000FEF792FEA0EB0801494502D90320BDE836
:10305000F0876068696800F00C00B0EB810FEFD179
:10306000306800F00700B8420BD9306820F0070044
:1030700038433060306800F00700B84201D00120CA
:10308000E5E72878400705D56068E96820F4E06046
:10309000084360602878000706D56068296920F435
:1030A000605040EAC100606000F028F86168084A9A
:1030B000C1F30311515CC840064908600648006826
:1030C000FFF7DEF90020C2E70020024000100240B6
:1030D000486200088800002080000020044805495C
:1030E00000684968044AC1F30221515CC840704736
:1030F0008800002000100240586200080E4A516803
:103100000E4801F00C03042B11D0082B0FD10C48F2
:10311000C1F38343C903C05C0AD55168084AC1F3AF
:103120004041921E515C054A5043B0FBF1F070479C
:1031300004494843704700000010024000127A0022
:103140003862000800093D002DE9F84F040070D0F6
:103150002078C04DC00749D06868C0F381000128BD
:1031600007D06868C0F38100022809D16868C003ED
:1031700006D52868800339D560680028E7D035E097
:103180006068B0F5803F0BD010B1B0F5A02F11D022
:10319000286820F480302860286820F4802002E02D
:1031A000286840F480302860606890B1FEF7DCFD4C
:1031B00006460AE0286840F480202860F0E700BF57
:1031C000FEF7D2FD801B642873D828688003F7D5EA
:1031D0000CE0FEF7C9FD064605E000BFFEF7C4FDA2
:1031E000801B6428F0D828688003F7D420789A4E92
:1031F00080074FF001094FF0000839D5686810F0DA
:103200000C0F07D06868C0F38100022809D16868F4
:10321000C00306D42868800714D52069012808D186
:1032200010E02069B0B1C6F80090FEF79DFD07469A
:1032300005E00AE1FEF798FDC01B0228C4D8286803
:103240008007F7D52868616920F0F80040EAC100DE
:1032500028600DE0C6F80080FEF786FD074604E012
:10326000FEF782FDC01B022823D828688007F7D408
:10327000207800072CD57948A169D9B1C0F8009011
:10328000FEF772FD074604E0FEF76EFDC01B022844
:103290000FD8686A8007F7D571484FF4FA51006873
:1032A000B0FBF1F0009000BF0098411E0091FAD2EF
:1032B0000EE080E0C0F80080FEF756FD074604E00F
:1032C000FEF752FDC01B022875D8686A8007F7D444
:1032D0002078400760D5E8690027C00008D4E86975
:1032E00040F08050E861E869012700F080500090CC
:1032F0005C480168C90513D40168834641F48071B4
:103300000160FEF731FD824606E000BFFEF72CFDAE
:10331000A0EB0A0064284ED8DBF80000C005F5D504
:10332000E06801280AD008B1052813D0286A20F0E7
:1033300001002862286A20F0040002E0286A40F0B8
:1033400001002862E06841F2883B98B1FEF70CFD6D
:1033500082460BE0286A40F004002862EEE700BFD6
:10336000FEF702FDA0EB0A0159455AD8286A8007EA
:10337000F6D50CE0FEF7F8FC824605E0FEF7F4FC1B
:10338000A0EB0A0159454CD8286A8007F6D41FB132
:10339000E86920F08050E861E06988B36968C1F3AA
:1033A0008101022944D00228C6F8608004D0FEF7CB
:1033B000DBFC044638E034E0FEF7D6FC074604E0C8
:1033C000FEF7D2FCC01B02282BD828688001F7D456
:1033D000206AB0F5803F05D16868A16820F400300C
:1033E00008436860D4E908010843696821F474114E
:1033F00008436860C6F86090FEF7B6FC044606E035
:1034000025E000BFFEF7B0FC001B022809D82868A1
:103410008001F7D51BE000BFFEF7A6FC001B0228C9
:1034200002D90320BDE8F88F28688001F4D40EE0AB
:103430000128F7D06868226A00F48031914204D1F3
:10344000616A00F47010884201D00120EAE7002090
:10345000E8E70000001002400000424280044242BF
:10346000880000200070004010B5401EB0F1807F41
:1034700001D3012010BD4FF0E02460610F216017DF
:1034800002F0B8F80020A06107202061002010BDE4
:10349000FEE701684A69D24352050FD46FF4806297
:1034A0004A61002140F8301F202242738173026973
:1034B00042F004020261017301207047002070474E
:1034C000F8B50446C06A1E460D461746082807D0C0
:1034D000012805D010F5803F02D0206B122804D1BE
:1034E0002068016841F480710160134600224FF0AA
:1034F00001112046009600F02FF940B120680068C5
:10350000C00502D54FF4007020640320F8BD206987
:10351000B0F5804F0ED00620216800EAD51040F0AB
:10352000F000086133463A460B49204600F05CF94A
:1035300078B902E005F0FE0000E0E8B22168086119
:10354000054933463A46891F204600F04DF90028C8
:10355000DCD00120F8BD0000080001002DE9F84F83
:103560000446006889460B9D01689846174641F459
:10357000806101602068016841F4807101600095FC
:103580004FF0011B0022594620460A9B00F0E4F848
:103590004FF4007A40B120680068C00501D5C4F836
:1035A00040A00320BDE8F88F216809F0FE00086103
:1035B0002B46284920460A9A00F016F9F0BB2068ED
:1035C0004169806900902A4620460A9900F0A2F9D4
:1035D00040B1206C04283AD12068016841F40071A0
:1035E000016034E0FEB2B8F1010F09D02168380A59
:1035F00008612A4620460A9900F08CF90028E8D193
:10360000206806612A4620460A9900F083F90028BE
:10361000DFD12068016841F48071016000950022CB
:10362000594620460A9B00F097F80028B3D121683C
:1036300009F0FF0040F00100086100E007E02B46C0
:10364000044920460A9A00F0CFF80028AAD00120A9
:10365000A8E70000020001002DE9F84304460068D5
:103660000D46DDE9089701689846164641F48071D9
:1036700001604B4600224FF001112046009700F0F8
:103680006BF848B120680068C00502D54FF400709F
:1036900020640320BDE8F883216805F0FE0008617E
:1036A0003B464A461549204600F09EF888B92068F6
:1036B0004169806900903A464946204600F02AF95F
:1036C00048B1206C042804D12068016841F40071DD
:1036D00001600120DEE7F5B2B8F1010F09D02168E1
:1036E000300A08613A464946204600F013F900289E
:1036F000E7D1206805610020CCE70000020001004E
:1037000070B516460D4604461EE02046FFF7C1FE82
:1037100008B1012070BD681C16D0FEF725FB801B88
:10372000A84200D885B920684069C04340070BD53E
:10373000002044F8300F20216173A073216941F00B
:10374000200121612073E4E720684069C0434007FD
:10375000DBD4002070BD00002DE9F04798461746E5
:103760000D460446C1F30746DDF820902AE000BF6D
:10377000B8F1FF3F26D0FEF7F7FAA0EB090141456B
:1037800002D8B8F1000F1DD12068012E16D0806933
:1037900025EA00000004000C12D00020B84211D12C
:1037A000002044F8300F20216173A073216941F09B
:1037B0002001216120730120BDE8F0874069E7E71F
:1037C0000120EBE72068012E0AD0806925EA00007D
:1037D0000004000C06D00020B842C9D00020EBE75E
:1037E0004069F3E70120F7E72DE9F04798461646D0
:1037F0000D4604464FF000094FF0200AC1F3074779
:1038000023E020684069C043400515D42068016862
:1038100041F40071016021686FF480604861C4F870
:10382000309084F83DA084F83E90216C41F0040172
:10383000216484F83C9021E0701C06D0FEF794FAD5
:10384000A0EB0800B04203D816B1012F1FD021E031
:103850002068012F15D0806925EA00000004000CC3
:1038600018D000BF44F8309F84F80DA084F80E9063
:10387000216941F02001216184F80C900120BDE80C
:10388000F087406925EA00000004000CEAD12068B6
:10389000406901E02068806925EA00000004000C0E
:1038A000AFD1ECE72DE9F041002590460E460446E5
:1038B000202728E04069C043C0060CD454F8301BD0
:1038C0006FF01000486144F810596777A577206AB7
:1038D0002062257714E0FEF747FAA0EB0800B0421B
:1038E00000D886B920684069C04340060BD544F82B
:1038F000305F6773A573206940F020002061257355
:103900000120BDE8F08120684169C9434906D1D44E
:103910000020F6E770B516460D4604461EE0204628
:10392000FFF7B7FD08B1012070BD681C16D0FEF787
:103930001BFA801BA84200D885B920684069C043A3
:1039400000060BD5002044F8300F20216173A073CE
:10395000216941F0200121612073E4E7206840697A
:10396000C0430006DBD4002070BD0000F0B500238A
:103970000A24302537261F4611E000BFB4EB107F24
:1039800002D905EB107C01E006EB107C01F813C0B6
:1039900001EB430C00015B1C8CF80170DBB293421D
:1039A000ECD3F0BD3EB5002411480094019402947C
:1039B0000E498460016001250573047505614FF4AB
:1039C00060214460C161FDF79DFF08B172B6FEE75A
:1039D00007200094CDE9015069460548FDF77EFEB9
:1039E000002801D072B6FEE73EBD00000024014071
:1039F0000402002070B586B000241C480094019495
:103A000002940394816941F010018161816901F0A0
:103A100010010491816941F020018161816901F007
:103A200020010491816941F004018161816901F003
:103A300004010491816941F00801816180690C4EA3
:103A400000F008004FF4005504900022294630464B
:103A5000FEF784F901200095CDE9010402200390CE
:103A600069463046FEF78AF806B070BD0010024085
:103A70000010014010B500220F49104800F014FD5D
:103A800008B1FDF727FE0E490C4800F0F0FE08B122
:103A9000FDF720FE0B49094800F012FB08B1FDF7C5
:103AA00019FE064800F038FF002803D0BDE810409A
:103AB000FDF710BE10BD00001C000020F802002021
:103AC000680100206C000020FEE7FEE72DE9F84FBA
:103AD000044640F68F7B48F60F794FF480684FF02C
:103AE000000ABDE1B0F8441011F00F0539D030F8EC
:103AF000256031047ED530F8251001EA0B0141F034
:103B0000800120F8251005EB850004EBC00797F82D
:103B10005C0107F5A87700286DD0F87802286BD0F3
:103B20003978226832F8210048F68F73184048F23D
:103B3000C003184322F821003978206830F821208A
:103B4000B0F8503052047DD5022202EBC1015A1860
:103B500008EB4201415A8905890D009173D03A89D9
:103B6000DDE0C9062BD4018801EA090141F40041D6
:103B70000180206804F11005B0F85030217C022249
:103B800002EBC1015A1808EB4201405AC0F3090088
:103B9000E062616A0844606200212046FEF70DFD84
:103BA000607B00289DD0A86900289AD1607B21689D
:103BB00040F08000A1F84C0084F80DA050E101888D
:103BC00004F5A8750A0521D5B0F850202B780621F8
:103BD00001EBC3010A4408EB4201405A04F5267187
:103BE000C0F30903EB61EA88206801F0BDFC20689E
:103BF000018802E0AEE06EE07EE001EA0B0141F0F8
:103C0000800101802046FFF72BF929E10904D5D571
:103C1000018801EA0B0141F0800101802068B0F8C1
:103C200050202B78062101EBC3010A4408EB420126
:103C3000405A83059B0DEB6110D0696971B1EA8828
:103C4000206801E05FE05DE001F08EFCE9696869F1
:103C50000844686100212046FEF7B8FC2168088806
:103C60000205ABD4C0F301300328A7D0B1F850004F
:103C70000844B0F80C14C1F30901A0F80C142A6927
:103C800000F20C403E2A09D95109D20600D1491E42
:103C900002884FF4004343EA812109E0B2B15108A0
:103CA000D20700D0491C02884FF6FF7303EA812136
:103CB0000A430280216808884BF68F72104080F416
:103CC000405048F2800210430880C9E0018841F466
:103CD00000410180EEE72068B0F850203B780621D3
:103CE00001EBC3010A4408EB4201415A8905890DE1
:103CF000009118D0FA8812E0324639462046FEF785
:103D0000C1FC00900FE0062202EBC1015A1808EB3B
:103D10004201415A8905890D009104D07A89796957
:103D2000009B01F021FCF86900990844F861796969
:103D3000009808447861B86918B1396900988142DF
:103D400004D939782046FEF741FC03E03946206863
:103D500001F086F930062ED505EB850004EBC00195
:103D6000206830F8252002EA090242F4004220F8D7
:103D70002520C87C103101281ED0F0056CD42068A5
:103D8000B0F850300D78022202EBC5021A4408EB5D
:103D90004202805A8A69C0F30900824255D9121A38
:103DA0008A6154D04A6902444A61CA691044C861B0
:103DB000206801F055F953E0C1F818A0087B52467D
:103DC00008B3700620D5487810B1012812D03AE027
:103DD0002068B0F8502010440A7800EB0210B0F8C8
:103DE0000424C2F30902A0F80424B0F8042442F425
:103DF000004206E02068B0F8503018440B7800EB21
:103E00000310A0F804241EE04B78206813B1012BA6
:103E100011D018E0B0F8502010440A7800EB0210DE
:103E2000B0F80C24C2F30902A0F80C24B0F80C245A
:103E300042F4004205E0B0F8503018440B7800EB33
:103E40000310A0F80C24097802E0C1F818A0E9B228
:103E50002046FEF7B2FB03E032462046FEF785FC23
:103E60002068B0F8441009043FF53CAE0020BDE8DE
:103E7000F88F70477047FEF7E9BA30B593B0282144
:103E80006846FCF7EEFA14210AA8FCF7EAFA0024C7
:103E900001200F9410941194010412948DE81300E2
:103EA00004900005CDE90810022507956846FFF744
:103EB0004BF908B172B6FEE70F20CDE90A054FF4C1
:103EC0008060CDE90C4001210AA80E94FFF770F83C
:103ED00008B172B6FEE712200F904FF480401190A7
:103EE000000212900FA8FEF7EDFF002801D072B675
:103EF000FEE713B030BD70472DE9F041D0F8C03275
:103F0000D0F8B822CAB101EB810500EB8504002688
:103F1000E7693FB103EBC5031B6AB7FBF3F503FB8E
:103F2000157323B1C2F814620020BDE8F0810023AC
:103F30001A46E66100F07EFCF6E70220F5E770B570
:103F40000546D0F8B84200F07AFBC4F80C02D5F868
:103F5000B80248B1D5F8BC12D4F80402CA6804F516
:103F600003719047002070BD022070BD70B50446FB
:103F70000026812100F0B6FA002501212046E562E5
:103F800000F0B0FA82212046C4F86C5100F0AAFA81
:103F90002564D4F8B80248B1D4F8BC0204F52E74F4
:103FA00040688047206800F014FE2560304670BDF0
:103FB00010B5D0E9AE4159B194F80002FF2807D0FE
:103FC0008B6894F8012221469847FF2084F800026C
:103FD000002010BD0A210180004870479000002099
:103FE0004321018000487047E00000204321018008
:103FF000004870479C000020432101800048704722
:10400000240100202DE9F04104460026007C4FF4F5
:104010000077012590B3402302228121204600F041
:1040200062FB4023E56202220121204600F05BFB97
:104030000823032282212046C4F86C5100F053FB70
:104040004FF40770256400F0C5FDC4F8B802F8B15C
:104050000546D4F8BC02006880470020C5F8140269
:10406000C5F81802207CD5F8042298B1402301211C
:10407000204600F044FB3046BDE8F081FFE73B46B8
:1040800002228121204600F02EFB3B46E562CAE772
:104090000126F0E73B46EAE710B5D0F8B81269B15F
:1040A000027C002AD1F8042205D04023012100F02F
:1040B00026FB002010BD4FF40073F7E7022010BD6F
:1040C00002460220002902D00020C2F8BC1270472C
:1040D000D0F8B802C0F8041200207047D0F8B80237
:1040E000C0F81022C0F80812002070472DE9FC41EA
:1040F0000546D0F8B87200208DF80000ADF8040035
:10410000064608780C4610F0600121D020293BD1EA
:10411000E288AAB10006607807D5D5F8BC128B6892
:1041200039469847E288394626E087F80002A079A8
:1041300087F80102E2883946284600F06AF828E04C
:10414000D5F8BC12607800228B682146984720E0A1
:10415000607820B10A2809D00B2815D110E095F815
:104160009C02032810D1022201A905E095F89C02C7
:10417000032809D101226946284600F064F808E0C6
:1041800095F89C02032804D02146284600F036F812
:1041900002263046BDE8FC8110B5D0F8B812A1B1B6
:1041A000D1F814220AB1012010BD0122C1F8142255
:1041B000D1F810220263B1F8102293B2D1F808228C
:1041C000812100F037FB002010BD022010BD10B58A
:1041D000D0F8B42252689047002010BD134610B5A5
:1041E0000A46002100F08BFA002010BD134610B5DE
:1041F0000A46002100F01EFB002010BD10B5044649
:10420000802100F0FCFA2046BDE81040002100F0BB
:10421000F6BA10B50323C0F85C21C0F89432C0F898
:10422000602113460A46002100F069FA002010BD03
:1042300010B505210023C0F894121A46194600F063
:104240005EFA002010BD10B50223C261C0F894329E
:10425000026213460A46002100F0ECFA002010BD6D
:1042600010B504210023C0F894121A46194600F034
:10427000E1FA002010BD000010B50A46024903A073
:1042800000F0E2F8004810BDBC0500204344432084
:10429000436F6E666967000012200880004870470F
:1042A0003C00002010B50A46024903A000F0CCF8FB
:1042B000004810BDBC05002043444320496E74658E
:1042C0007266616365000000042008800048704742
:1042D0003800002010B50A46024903A000F0B4F8E7
:1042E000004810BDBC05002053544D6963726F65D2
:1042F0006C656374726F6E696373000010B50A4673
:10430000024903A000F0A0F8004810BDBC05002041
:1043100053544D3332205669727475616C20436F6B
:104320006D506F727400000010B51A2008800A48A2
:104330000168001D0468001D0068081809D00822E3
:104340000649FFF713FB0549042210312046FFF709
:104350000DFB0248801E10BDE8F7FF1F5200002031
:10436000F8B504460020ADF8000048880D46010A63
:10437000082948D2DFE801F04704091747473C45C0
:10438000D4F8B012207C0A6819E0207C02260028AC
:10439000D4F8B40205D0C16A684688470146467021
:1043A0003EE0816AF8E7C0B206282CD2DFE800F0D0
:1043B000030A1014181CD4F8B002426805E06946DC
:1043C00090471CE0D4F8B0028268E2B1207CF6E7A6
:1043D000D4F8B002C268F8E7D4F8B0020269F4E792
:1043E000D4F8B0024269F0E7D4F8B0028269ECE791
:1043F000207C40B9D4F8B402416B68468847014636
:104400000EE0207C20B129462046FFF7F7FEF8BDDC
:10441000D4F8B402016B684688470146072048700B
:10442000BDF8000048B1EA8852B1824200D9024684
:10443000ADF800202046FFF706FFE8880028E6D107
:104440002046FFF70DFFF8BD70B5002300281ED0F1
:104450000446002502E06D1CEDB2641C2678002E97
:10446000F9D1022404EB450414801278CA545B1C71
:104470000322CA5400245B1C06E0CA545B1CDAB257
:104480008C54521CD3B2401C0278002AF5D170BD66
:1044900001004FF0000004D0012901D0022901D011
:1044A000022070470120704710B580B1D0F8B432B7
:1044B00013B10023C0F8B43209B1C0F8B012012121
:1044C00080F89C12027000F0BFF8002010BD02209E
:1044D00010BD10B5D0F8C002FEF7A7F8BDE8104037
:1044E000FFF7D6BF10B5D0F8C002FEF779F8BDE8E7
:1044F0001040FFF7CDBF2DE9F0411746044651B1FA
:10450000D4F8B40242691AB194F89C02032851D03D
:104510000220BDE8F081D4F89432002504F11400A3
:10452000022B03D0042B3AD0C3B33CE0D0E90363A1
:104530009E4207D9F11AC1608AB239462046FFF778
:1045400055FE12E08068B0FBF3F103FB110199B94D
:10455000984211D3D4F8981288420DD20022114605
:104560002046FFF743FEC4F8985200231A46194626
:10457000204600F0C4F816E0D4F8B402C16829B1AE
:1045800094F89C02032801D12046884780212046C8
:1045900000F035F92046FFF74BFE04E0FFE78021ED
:1045A000204600F02CF994F8A002012804D184F8E8
:1045B000A05201E0204690470020AAE770B51546BA
:1045C000044649B1D4F8B40282691AB194F89C0245
:1045D000032830D0022070BDD4F8941204F5AA70DC
:1045E000032902D005291ED027E0D0E903218A4201
:1045F0000BD9531AC3600846834200D303469AB2CC
:1046000029462046FFF7EAFD17E0D4F8B402016915
:1046100029B194F89C02032801D1204688472046FE
:10462000FFF71EFE09E000200146C4F89402204670
:1046300000F0E5F801E020469047002070BDD0F87A
:10464000C002FEF72EBA000010B504461C481D49F2
:10465000C0F8D442C4F8C0020160082101710221EF
:10466000817100218172C1720173FEF74FFB08B1A5
:10467000FDF730F80022D4F8C0021823114604F5E3
:104680003074FDF77BFF5823002280212068FDF75E
:1046900075FFC023002281212068FDF76FFF4FF4D2
:1046A0008873002201212068FDF768FF4FF48073B2
:1046B000002282212068FDF761FF002010BD00006C
:1046C0005C0A0020005C00400A0601F07F01D0F87F
:1046D000C00201EB810100EBC10001D5807C704775
:1046E00090F85201704710B51C461346D0F8C0022E
:1046F0002246FEF7DFF9BDE81040FFF7C9BE10B54E
:10470000D0F8C002FEF702FABDE81040FFF7C0BEC5
:1047100070B50022044640231146FFF7E4FF40260F
:104720000125C4F864613346002280212046C4F884
:104730005851FFF7D8FF6662A56184F89C520020AB
:10474000C4F894026060C4F8A402D4F8B80228B196
:10475000D4F8B4020021426820469047002070BD82
:1047600090F89C12042903D190F89D1280F89C12B5
:104770000020704710B590F89C12032904D1D0F89E
:10478000B412C96901B18847002010BD017400202E
:10479000704710B5D0F8C002FEF74FFBBDE81040DF
:1047A000FFF776BE70B5044600F52A70054600F0A6
:1047B0004AF80120C4F89402B4F8AE02C4F8980292
:1047C00094F8A80210F01F010AD001290DD0022987
:1047D00010D000F08001204600F011F8002070BDDC
:1047E0002946204600F09DF8F8E72946204600F0CB
:1047F000C9F9F3E72946204600F01CF9EEE710B5A9
:10480000D0F8C002FEF799F9BDE81040FFF740BEAE
:1048100010B5D0F8C002FEF72AFBBDE81040FFF744
:1048200037BE90F89C1280F89D12042180F89C12EB
:104830000020704710B5D0F8C002FEF7B6F9BDE809
:104840001040FFF725BE0A7802704A7842708A78D5
:10485000CB7802EB032242800A794B7902EB0322E8
:1048600082808A79C97902EB0121C18070470246B2
:10487000002011B1C2F8B41270470220704710B581
:10488000D0F8B42202241AB11268904700B900246B
:10489000204610BD70B50E461E4D8978044629701D
:1048A000012931D894F89C0202280BD003280FD09C
:1048B00031462046FFF7A2FC29782046BDE870402B
:1048C000FFF785BCD9B10320616084F89C0209E040
:1048D00071B16068884212D0C1B22046FFF777FC00
:1048E000297861602046FFF7CAFF02280CD006E055
:1048F000022084F89C0220466160FFF768FC204695
:10490000BDE87040FFF7ACBC31462046BDE87040C2
:10491000FFF774BC8C00002010B5FFF779FF002072
:1049200010BD2DE9F0410A78002612F0600208D08F
:10493000202A01D0402A70D1D0F8B4229268904742
:104940006DE04B78002201250A2B66D2DFE803F0E8
:10495000405D6557650805652C29FFF701FD5EE0A0
:1049600004468888D8B9C888C8B94888802816D22B
:1049700000F07F0794F89C02032810D084F89E7200
:1049800039462046FFF705FF2046FFF769FC1FB1B7
:10499000022084F89C0242E084F89C523FE02046CA
:1049A0003BE0FFF777FF3AE0CB88012B35D190F859
:1049B0009C32012B04D0022B02D0032B2DD104E01A
:1049C0008260012200F1080116E00122011D13E0BE
:1049D00090F89C22012A03D0022A01D0032A1CD17C
:1049E000CA88022A19D1C560D0F8A41209B10321DE
:1049F000C160022200F10C01FFF725FC0FE049889D
:104A000001290CD1C0F8A45211E090F89C32012B7E
:104A100008D0022B06D0032B04D0FFF7EFFB304663
:104A2000BDE8F08149880129F9D1C0F8A422FFF737
:104A300017FCF4E72DE9F0410A46044610780027F8
:104A4000097910F060030AD0202B01D0402B50D1FF
:104A5000D4F8B40211468368204698478FE0C0F32B
:104A60004110012806D05078D0B301282AD003285D
:104A70003FD107E0D4F8B402114683682046BDE870
:104A8000F041184794F89C02022802D0032872D102
:104A90000AE071B380296ED02046FFF7B0FE802176
:104AA0002046FFF7ACFE6AE0508838B931B1802962
:104AB00004D0D08810B92046FFF7A1FE2046FFF7AA
:104AC000CFFB5CE094F89C020228E2D0032852D18C
:104AD000508898BB4806F1D02046FFF7FAFCEDE776
:104AE000FFE794F89C020026022803D0032842D155
:104AF00012E040E009B180293DD1080601F07F00B5
:104B000000EB800004EB800101D5143101E001F5D8
:104B1000AA7102220E602AE0080601F00F0000EBE5
:104B2000800004EB80000AD5806920B301F07F008B
:104B300000EB800004EB800514350BE01FE0D0F89B
:104B40005801C0B101F07F0000EB800004EB80054C
:104B500005F5AA7541B1802906D02046FFF7B4FDBE
:104B600010B10120286000E02E6002222946204674
:104B7000FFF769FB03E011462046FFF73FFB38468D
:104B8000BDE8F08170B5054608780C4610F060006D
:104B900003D0202801D0402816D195F89C02012886
:104BA00003D0022801D003280ED1207901280BD888
:104BB000D5F8B402826828469047E188014306D1BF
:104BC0002846FFF74DFB02E02846FFF717FB0020C1
:104BD00070BD7047004870473C0800202DE9F04741
:104BE0000C78002630F8243048F68F121340CA782B
:104BF000002A78D0012A7CD0022A02D0032A75D05C
:104C0000012648F28002134320F824300D7830F852
:104C1000253048F68F7423402B43134320F825306A
:104C20000D7B48F2C00948F6BF734CF2800A4BF680
:104C30008F77EDB3CD7891F800C0022D30F82C506D
:104C40007DD048F68F6805EA0805154320F82C50FA
:104C5000B0F8505091F800C0054405EB0C15B1F8C0
:104C600008C02CF0010CA5F800C4B0F8505091F821
:104C700000C0054405EB0C15B1F80AC02CF0010C7E
:104C8000A5F808C44D78002D7ED00D7830F825C0E9
:104C90005FEA4C4C07D530F825C00CEA040C4CEA0E
:104CA0000A0C20F825C091F800C030F82C5000E024
:104CB00022E06D0606D530F82C50254045EA09055E
:104CC00020F82C50CC780D78012C30F8254004EADF
:104CD00003047CD084F02003134320F82530C1E086
:104CE00001E006E002E043F400738AE743F4C063A6
:104CF00087E743F4806384E74D784DB3B0F85050B4
:104D00000F78054405EB0715CF8827F00107A5F8B4
:104D100000740F7830F827506D0606D530F827500C
:104D2000254045EA090520F82750CC78012C07D00A
:104D30000C7830F82410194081F0200104E064E080
:104D40000C7830F824101940114320F8241090E01A
:104D5000B0F850300D78034403EB0513CD8825F0EF
:104D60000105A3F80854B0F850300D78034403EB64
:104D70000513B3F80C54C5F30905A3F80C540D69D9
:104D800003F20C433E2D00E045E00BD94FEA551CE1
:104D9000ED0601D1ACF1010C1D884FF4004848EA42
:104DA0008C2C0BE035B34FEA550CED0701D00CF11C
:104DB000010C1D884FF6FF7808EA8C2C45EA0C059B
:104DC0001D800D7830F825305B0408D500E046E002
:104DD00030F82530234043EA0A0320F825300978CB
:104DE00061B130F821303B4083F40053134320F885
:104DF00021303EE01D8845F40045E1E70188394057
:104E000081F440511143018033E0254048F280187D
:104E100045EA08051AE791F800C030F82C506D04F7
:104E200006D530F82C50254045EA0A0520F82C50CC
:104E300091F800C030F82C506D0606D530F82C5093
:104E4000254045EA090520F82C500D7830F825401A
:104E50003C4084F44054144320F8254070E7144348
:104E600020F825400B7830F823103940114320F802
:104E700023103046BDE8F087002070472DE9F0434D
:104E800091F80C804F780A7848F6BF7C4BF68F7902
:104E900048F2800348F2C0054CF2800648F68F7451
:104EA000B8F1000F28D0002F30F822704FEA4747A2
:104EB00048D0002F05DA30F822702740374320F819
:104EC00022700A7830F822707F0605D530F82270FB
:104ED00027402F4320F822700D7830F825202240FB
:104EE000324320F825200C7830F8242002EA0C0206
:104EF0001A4320F824201AE07FB130F822607606A9
:104F000005D530F8226026402E4320F822600A782A
:104F100030F8221001EA0C010EE030F822506D0446
:104F200005D530F822502540354320F822500A7824
:104F300030F8221001EA0901194320F8221000205C
:104F4000BDE8F083002F05DA30F8227027403743A0
:104F500020F822700A7830F82260760605D530F8FD
:104F6000226026402E4320F822600E7830F826205A
:104F700022402A4320F826200C7830F8242002EA28
:104F800009021A4320F82420C1E7002070470020BE
:104F90007047012120F8401F00210180818001829B
:104FA0000846704730F8401F21F43F41018000203F
:104FB00070470020704730B50A7BB2BB4A7848F68C
:104FC0008F7548F28004C2B10B7830F82320520666
:104FD00007D530F823202A4048F2C0052A4320F89C
:104FE0002320CA78012A20D00A7830F8221048F607
:104FF000BF73194081F0200114E00A7830F82230A4
:105000005B0407D530F822302B404CF280052B434F
:1050100020F822300A7830F822104BF68F731940AE
:1050200081F44051214320F82210002030BD10B5FA
:105030004A780978002A48F2800330F8212005D008
:1050400048F6BF74224082F0100204E04BF68F74E1
:10505000224082F480521A4320F82120002010BD03
:105060002DE9F0470D464B78097B04464FF00009C7
:1050700048F68F7248F2800A4FF400474FF6FF78E7
:10508000012B09D000296FD0E87802286DD00128C3
:105090006CD00120BDE8F087AE692869864200D94E
:1050A000064691B1E97802291ED0286A801B286241
:1050B000287834F820104906B4F85010214401EB48
:1050C000001073D5A0F80C6416E1B3B2EA8820464C
:1050D000696900F067FAB4F850002978204400EBC1
:1050E0000110A0F804640DE1296A814277D929787A
:1050F00034F82100104048F28012104324F82100B7
:10510000286A801B2862287834F8201049066978BC
:1051100071D511B101292AD030E0B4F850102144E2
:1051200001EB0010B0F80C14C1F30901A0F80C1445
:1051300000F20C403E2E07D97109F20600D1491E3B
:10514000028847EA812107E04EB17108F20700D0DA
:10515000491C028808EA81210A4302800EE0018886
:1051600041F40041018009E0F1E020E195E1B4F86B
:105170005020111901EB0010A0F80C646A89B3B239
:105180002046696900F00EFA68693044686129694F
:10519000286A884202D9801B286202E00646C5F8C8
:1051A0002090687818B101282BD032E02FE0B4F8B5
:1051B00050002978204400EB0110B0F80414C1F32A
:1051C0000901A0F8041400F204403E2E08D9710928
:1051D000F20600D1491E028847EA812108E0A1E0D9
:1051E00056B17108F20700D0491C028808EA8121F3
:1051F0000A4302800DE00EE0018841F40041018085
:1052000007E0B4F850002978204400EB0110A0F822
:1052100004642A8971E011B1012927D02DE0B4F886
:105220005010214401EB0010B0F80414C1F309013F
:10523000A0F8041400F204403E2E07D97109F206CA
:1052400000D1491E028847EA812107E04EB171086A
:10525000F20700D0491C028808EA81210A43028033
:105260000BE0018841F40041018006E0B4F85010E1
:10527000214401EB0010A0F804642A89B3B220464F
:10528000696900F08FF96869304468612969286AA2
:10529000884202D9801B286202E00646C5F82090A9
:1052A000687810B1012836D026E0B4F8500029788B
:1052B000204400EB0110B0F80C14C1F30901A0F870
:1052C0000C1400F20C403E2E07D97109F20600D1F1
:1052D000491E028847EA812107E04EB17108F207B2
:1052E00000D0491C028808EA81210A43028003E0B9
:1052F000018841F4004101806A89B3B2204669699E
:1053000000F050F9297834F8210048F6BF721040B7
:1053100080F030000FE1B4F850100819297800EB44
:105320000110CFE62A7834F8220048F68F6318403F
:1053300040EA0A0024F82200B4F850002A782044F9
:1053400000EB02108BB2A0F804342A89D6E7A969D1
:105350002869814202D9091AA96102E00846C5F804
:105360001890B4F850102A78214401EB0211B1F8DA
:105370000C24C2F30902A1F80C2401F20C413E28CE
:105380007DD94209C00600D1521E088847EA822210
:105390000AE0088840F4004007E04208C00700D057
:1053A000521C088808EA822210430880BBE033BB05
:1053B000B4F850002978204400EB0110B0F8041430
:1053C000C1F30901A0F80414296900F204403E2940
:1053D00007D94B09C90600D15B1E018847EA832320
:1053E00007E041B14B08C90700D05B1C018808EAFF
:1053F0008323194302E0018841F400410180687869
:1054000010B1012828D030E0B4F8500029782044A9
:1054100000EB0110B0F80C14C1F30901A0F80C1452
:10542000296900F20C403E2907D94B09C90600D171
:105430005B1E018847EA832307E041B14B08C90797
:1054400000D05B1C018808EA8323194302E001882D
:1054500041F40041018008E0B4F85010081929789F
:1054600000EB0110298AA0F80C14E869C0B3297870
:1054700034F82100430401D5430605D400E046E09A
:1054800044F2400318424ED134F82100104048F253
:10549000C002104324F8210045E0A969286981422F
:1054A00002D9091AA96102E00846C5F8189013BB91
:1054B000B4F850102A78214401EB0211B1F8042409
:1054C000C2F30902A1F8042401F204413E2808D9DC
:1054D0004209C30600D1521E0B8847EA822208E027
:1054E00021E078B14208C30700D0521C0B8808EABB
:1054F000822213430B80697800293FF42EAF0129E3
:1055000009D010E00A8842F400420A80F3E700283C
:105510007FF443AF3DE7B4F8502011192A7801EB2E
:105520000211A1F80C04297834F821004BF68F728F
:10553000104080F4405040EA0A0024F82100002086
:10554000A8E50021A0F844104FF43F41A0F8401016
:10555000002070470148FDF73FBB00005C0A0020B7
:10556000B0F844007047000010B500EB42005C0842
:1055700000F5806009D000BF30F8042B01F8012B42
:10558000120A01F8012B641EF6D1DA0701D0008857
:10559000087010BD0020704711B98021A0F84C1090
:1055A0000020704710B55B1C00EB42005B0800F563
:1055B000806009D011F8012B11F8014B42EA042256
:1055C00020F8042B5B1EF5D110BDFEE7490050EA20
:1055D000C12018BF04204A0D18BF40F0010040F25E
:1055E000FF72B2EB515F08BF40F00200012808BF14
:1055F000052070470907090E002804DB00F1E020B0
:1056000080F80014704700F00F0000F1E02080F8EF
:10561000141D704730380A2801D20120704700203D
:105620007047000088B0FCF719FFFEF726FCFEF774
:10563000E1F9FEF71FFA9B4899499B4D0024016050
:10564000C0E901540E14C0E9034644618461C46199
:105650000462FCF78FFB08B172B6FEE7FEF7A2F911
:105660009048924954300160C0E90154C0E90346B2
:1056700044618461C4610462FCF77CFB08B172B6CA
:10568000FEE78849042514234E2201F1B800009555
:10569000FBF768FF834800221146B830FBF7B3FFE1
:1056A000804883A1B830FBF7D3FF4FF47A70FCF742
:1056B00053FA7C483038FCF7E9F9DFF808A23227C2
:1056C0000AF10408AAF114047648CDE900A556466B
:1056D00002230022A12154300297FCF7A5FCCDF84B
:1056E00000807048CDE9015702230922A1215430DE
:1056F000FCF79AFC306800900146D6F80490A06848
:1057000000F056FC494600F0F1FB664E6060A8369A
:10571000307802285CD10022114606F11000FBF718
:1057200072FF69A106F11000FBF792FF0122002130
:1057300006F11000FBF767FF66A106F11000FBF70A
:1057400087FFA06800F0A6FB02460B4664A104A8F0
:10575000FAF766FD606800F09DFB02460B4660A10B
:1057600006A8FAF75DFD00220A2106F11000FBF7FA
:105770004AFF04A906F11000FBF76AFF01220A2183
:1057800006F11000FBF73FFF06A906F11000FBF73A
:105790005FFF484600F07EFB81468B46009800F094
:1057A00079FBCDE90001606800F074FBCDE9029B54
:1057B00002460B464BA1A6F59E70FAF731FDA6F501
:1057C0009E70FAF7C8FD81B2A6F59E70FBF7B4FE95
:1057D000307803287FF478AF56F8019F394876680F
:1057E0000838C4E903968DE8A1002E480223002260
:1057F000A0215430FCF746FD0A20FCF7ADF93148F2
:105800000223001F8DE8A10026480922A021543060
:10581000FCF738FD0A20FCF79FF9224800221146C8
:10582000B830FBF7F0FE1F4837A1B830FBF710FF88
:105830001C4801220021B830FBF7E5FE194837A1CA
:10584000B830FBF705FF484600F024FB02460B4644
:1058500023A103A8FAF7E4FC304600F01BFB024644
:105860000B461FA105A8FAF7DBFC0E4800220A210F
:10587000B830FBF7C8FE0B4803A9B830FBF7E8FEC9
:10588000084801220A21B830FBF7BDFE054805A9EA
:10589000B830FBF7DDFE6420FCF75EF914E700008A
:1058A0000054004034020020A0860100005800404F
:1058B000202020202050726F6A65637420202020F1
:1058C0002020200014000020566F6C746167653A38
:1058D000202000004E68696574446F3A00000000A3
:1058E000256600004E6869657420646F3A20252E95
:1058F00034663B20613A20252E34663B20623A20F4
:10590000252E34660000000020202020613A20204F
:1059100020202020202020202020200020202020A7
:10592000623A20202020202020202020202020003B
:1059300010B500290AD00878002807D00548784417
:10594000FBF746F9002801D0002010BD024878443A
:1059500010BD0000D6090000CE09000021F0004271
:10596000A2F16052B2F5801F01F0004328BFD2F1CE
:105970007F6C0BD95FEA001C43EAC20242EB507015
:1059800018BF704728BF20F001007047B2F5801F94
:10599000BCBF184670474FEA410C1CF5001F02D2ED
:1059A000084600F0CCBB70B500F020FA000000897A
:1059B000FFF7F6BF4FF00040A0F5800070470000F1
:1059C0002DE9C04130B4DFF8A0C23CEA111418BF81
:1059D0003CEA131400F0EC8081EA03051CEA111480
:1059E00044EAD57418BF1CEA131500F0C780A4EB75
:1059F00005044FF0004545EAC12145EAC32341EAC9
:105A0000505143EA525304F17F74994204F5003433
:105A10004FEAC0204FEAC22208BF904200F09C80AB
:105A20004FEA13650FF24016765D4FEA134506FB09
:105A300005F7C7F1807706FB07F74FEAD737A7FBD3
:105A400003687642C8F58038A7FB06CE38BFA8F1B8
:105A5000010807FB08E64FF0000EA6FB028CE6FBF0
:105A600003CEDCF1000CCEF1004E38BFAEF1010EDA
:105A7000A6FB0C584FF000074FF00005E6FB0E8721
:105A8000A1FB08C6A0FB07CE16EB0E0645F10005EC
:105A9000E1FB076515F1E04E7EBFA4F580345FEAB7
:105AA00046066D4116F1800745F100054FEA1727BC
:105AB0004FEA066647EA0567A6F1DE46B6F1805F63
:105AC0004FEA15251FD9384624F0010C05EBC471A7
:105AD000BCF1FE6F01EB0C1102D8F0BCBDE80081F7
